:100000000C942A000C944B121895000018950000CF
:10001000189500001895000018950000189500002C
:10002000189500001895000018950000189500001C
:10003000189500001895000018950000189500000C
:1000400018950000189500001895000018950000FC
:10005000189500008FE58DBFC2E4E4E14E2E88E0E4
:100060008EBFD8E0F8E05F2EA89584B7082E877F72
:1000700084BF88E1992781BD91BDEEEFF7E0A0E64E
:10008000B0E088278D933197E9F766248A988C9899
:10009000929894980E94110585B7836085BF7BB7BD
:1000A00070647BBF789489988B9AC398C498BB9AE4
:1000B000BC9AC198C298B99ABA9AD898C098D09A5E
:1000C000B89ADB98DA98D39AD29ADD98DC98D59AC8
:1000D000D49ADF98DE98D79AD69AAE98AF98A69A17
:1000E000A79AAC98AD98A49AA59AAA98AB98A29A08
:1000F000A39AA898A998A09AA19A969897988E9A48
:100100008F9A86E886B980E487B98CE19CE0AFEEEF
:10011000B0E08D939C9382E390E0AAEEB0E08D93E3
:100120009C9381E090E0A8EEB0E08D939C93ACEDC1
:10013000B0E0E6E5F9E20E94121481E090E0ACEE56
:10014000B0E08D939C93ACEEB0E00D911C91053026
:1001500050E015071CF011F00C94BC0082B398E03D
:10016000892782BB86E990E00E943C12ACEEB0E0A9
:100170000E9425120C94A30093980E94230E0E94C3
:100180003410A8EDB0E00E94251484990C94DA0094
:10019000A8EDB0E00E942512A8EDB0E00D911C91F1
:1001A000083E53E0150711F00C94D8000E94110589
:1001B0000C94C500A2E9B0E00C9107FB16F00C947A
:1001C000F900A2E9B0E00C9104FB16F00C94EF00EA
:1001D000A8E7B0E0BA93AA930E94F3022296A2E99C
:1001E000B0E08C918F778C93A2E9B0E08C91806421
:1001F0008C9381990C941501939A07B1007E01604C
:1002000007B90E941814AAEEB0E08D939C93AAEE51
:10021000B0E00D911C91085F1F4FAAEEB0E00D9366
:100220001C930E94A40B0E944608819B0C941D0104
:1002300093980E94230E0E9434100C94C10081E018
:100240000E940C1481E00E940C1482E00E940C14A5
:1002500081E0AC81BD818C93AE81BF810E94A514E9
:10026000482FAC81BD810C91041718F011F00C944B
:100270006401AC81BD818C91EE81FF8101E00A9324
:10028000A981BA810E949614A881B9818C91AA8112
:10029000BB818C93AA81BB81BA93AA93AC81BD81A7
:1002A000BA93AA930E9428052496AA81BB81BA9387
:1002B000AA930E946A012296AC81BD818C918F5FC6
:1002C0008C9310F40C942C0184E0481A80E0580AB6
:1002D0002696089582E00E940C14AA81BB818C911D
:1002E000A881B9818D9388278C93A4E8B0E00C9104
:1002F00005FB16F00C947501AA81BB818C91A6E8D0
:10030000B0E08C9380E080938700AA81BB818C91C0
:10031000A8E8B0E08C9380E08093890080E080932F
:100320008A0080E080938B0080E080938C0080E0E6
:1003300080938D00A4E8B0E0BA93AA9388E0D2013C
:100340008C9381E00E940C140E94A804249681E002
:100350000E940814A4E8B0E00C9105FB16F00C9480
:10036000AA0180E08093860080E08093870080E08F
:100370008093880080E08093890080E080938A00E9
:1003800080E080938B0080E080938C0080E08093FD
:100390008D00A4E8B0E0BA93AA9388E0D2018C93D0
:1003A00081E00E940C140E94A804249681E00E941F
:1003B000081482E0481A80E0580A2296089582E0E4
:1003C0000E940C1482E00E940C1482E00E940C1423
:1003D00082E00E940C1482E00E940C1482E00E94D1
:1003E0000C14A1ECB0E08D919C91AA85BB858D93F6
:1003F0009C93A3ECB0E08D919C91A885B9858D93D9
:100400009C93A5ECB0E08D919C91AE81BF818D93C2
:100410009C93A7ECB0E08D919C91AC81BD818D93B4
:100420009C93A9ECB0E08D919C91AA81BB818D93A6
:100430009C93ABECB0E08D919C91A881B9818D9398
:100440009C93A4E8B0E00C9105FB16F00C942102FB
:10045000AA85BB8511968C91A6E8B0E08C9380E0CC
:1004600080938700AA85BB858C91A8E8B0E08C9327
:10047000A885B9858C91A9E8B0E08C93AE81BF8145
:100480008C91AAE8B0E08C93AC81BD818C91ABE8F3
:10049000B0E08C93AA81BB818C91ACE8B0E08C93E6
:1004A000A881B9818C91ADE8B0E08C93A4E8B0E06C
:1004B000BA93AA9388E0D2018C9381E00E940C1435
:1004C0000E94A804249681E00E9408148CE0481A37
:1004D00080E0580A2C960895A4E8B0E00C9105FB42
:1004E00016F00C946C0280E08093860080E080938C
:1004F000870080E08093880080E08093890080E01E
:1005000080938A0080E080938B0080E080938C0051
:1005100080E080938D00A4E8B0E0BA93AA9388E0CD
:10052000D2018C9381E00E940C140E94A8042496AE
:1005300081E00E9408140895F894FFCF1212011070
:100540000100000008AAAA03EF0100010200010057
:100550002209022200010102C096090400000103E1
:10056000010100092111010001223F00070581035B
:10057000080014003F05010906A101050719E0293B
:10058000E71500250175019508810295017508811F
:100590000395057501050819012905910295017555
:1005A00003910395067508150025650507190029AF
:1005B000658100C00404030904000E0E036F006C83
:1005C000006C006F0070006100002E2E034D006F64
:1005D0000063006F004D006F0063006F0076003114
:1005E000002E0030000080E08093940080E6A88117
:1005F000B9818C9300916200003811F00C944F0384
:1006000000916300063011F00C944D0300916500D9
:10061000013011F00C941503ECE3F5E00E941F1279
:1006200081E0809394000C944D03023011F00C94FF
:100630002203E0E5F5E00E941F1281E08093940020
:100640000C944D03033011F00C944D0300916400A1
:10065000003011F00C943503E4EBF5E00E941F121A
:1006600081E0809394000C944D03013011F00C94C0
:100670004203EAEBF5E00E941F1281E080939400B0
:100680000C944D03023011F00C944D03EAECF5E0AC
:100690000E941F1281E0809394000C9400040030AB
:1006A00011F00C948E0300916300053011F00C944E
:1006B0007803A881B981BA93AA9380E0D2018C9380
:1006C00081E00E940C140E94A804249681E00E94FC
:1006D0000814A881B9810C9105FB16F40C947203DF
:1006E0000C94690380916400809360000C948C03E7
:1006F000093011F00C948C03A881B981BA93AA93A4
:1007000080E0D2018C9381E00E940C140E94A80426
:10071000249681E00E9408140C940004013811F022
:100720000C94A70300916300063011F00C94A5030C
:1007300000916500023211F00C94A503E4E7F5E0A6
:100740000E941F1281E0809394000C940004013AEF
:1007500011F00C94B30300916300013011F00C947C
:10076000B1030C940004013211F00C9400040091C8
:100770006300093011F00C94E903A2E9B0E08C9118
:100780008F778C93A2E9B0E08C9180648C93A3E97D
:10079000B0E08C918F7D8C93A881B981BA93AA9394
:1007A00080E0D2018C9381E00E940C140E94A80486
:1007B000249681E00E940814A2E9B0E00C9107FBA6
:1007C00016F00C94DC03809162008093DB000C94A3
:1007D00000040A3011F00C94000481E08093DA00E8
:1007E000A881B981BA93AA9380E0D2018C9381E069
:1007F0000E940C140E94A804249681E00E94081410
:1008000000919400013011F00C941104A881B98179
:10081000BA93AA93A8E6B0E0BA93AA930E941204EE
:10082000249608950E942212A3EFB0E00E942114A2
:100830000C920E941F124091F300A881B9810C9183
:10084000041710F00C942904A881B9818C9180932D
:10085000F30082E08093F40081E08093F500409102
:10086000F3000091F500041718F011F00C94A704A0
:10087000A4EFB0E08C918F5F8C930E942212A4EFC2
:10088000B0E0AD90BB24AA81BB81AA0DBB1D11971E
:100890000E9421140C920E941F120091F4000A3051
:1008A00081E009F080E08F934091F3000091F50022
:1008B000041781E009F080E09F91892B882311F4CF
:1008C0000C949F04A4EFB0E08C9182508C93AA8189
:1008D000BB81BA93AA938091F400D2018C9381E0FA
:1008E0000E940C140E94A804249681E00E9408141F
:1008F000AA81BB810C9105FB16F40C949C04A6EF15
:10090000B0E00E94251484990C949A04A6EFB0E0FC
:100910000E942512A6EFB0E00D911C91083E53E015
:10092000150711F00C9498040E9411050C94A7046B
:100930000C9483040C94780482E08093F400A5EF77
:10094000B0E08C918F5F8C9310F40C942F04089579
:10095000AA81BB818C91807C8C93A0E9B0E0BA9392
:10096000AA93AC80BD80A2E0B0E0AA0DBB1DBA93F3
:10097000AA93AC81BD81BA93AA930E94C51326960F
:10098000A881B9818C918D5F8C93AA81BB810C91D8
:10099000A881B9814C91040FAA81BB810C93A0E975
:1009A000B0E08C91A881B981AD90BB24AA81BB81B4
:1009B000AA0DBB1D11978C93A881B9818C918F5F73
:1009C0008C93A0E9B0E011968C91A881B981AD908B
:1009D000BB24AA81BB81AA0DBB1D11978C938BE40C
:1009E000AA80BB80A1E0B0E0AA0DBB1D8C93AA81B8
:1009F000BB810C9106FB16F40C94060583ECAA80CF
:100A0000BB80A1E0B0E0AA0DBB1D8C93AA81BB8185
:100A10008C9180618C93AA81BB818C918F7D8C930A
:100A20000895A2E9B0E08C9180648C93A2E9B0E0D3
:100A30008C918F778C9380E28093780080E2809312
:100A4000840080E08093600080E08093DA00089565
:100A500082E00E940C1481E6482FAA81BB810C9190
:100A6000041781E008F480E08F938AE7482FAA8179
:100A7000BB810C91041781E010F009F080E09F9198
:100A80008923882311F40C945105AA81BB810D910F
:100A900011270D551040A881B9810D931C930C941A
:100AA000C90581E4482FAA81BB810C91041781E01C
:100AB00008F480E08F938AE5482FAA81BB810C91CE
:100AC000041781E010F009F080E09F9189238823CA
:100AD00011F40C948305AA81BB810D9111270D534C
:100AE0001040A881B9810D931C93A881B9810D9103
:100AF0001C9140E052E0042B152BA881B9810D9385
:100B00001C930C94C90581E3482FAA81BB810C91E9
:100B1000041781E008F480E08F9389E3482FAA81CD
:100B2000BB810C91041781E010F009F080E09F91E7
:100B30008923882311F40C94A905AA81BB810D9106
:100B4000112703511040A881B9810D931C930C9477
:100B5000C90580E3482F041711F00C94B70587E20C
:100B600090E0A881B9818D939C930C94C90580E293
:100B7000482F041711F00C94C5058CE290E0A88171
:100B8000B9818D939C930C94C905A881B9810E9469
:100B90002514A881B9818D919C91AC81BD818D93E3
:100BA0009C9382E0481A80E0580A22960895ACEDA2
:100BB000B0E0EAEEF0E00E943B148CE00E940C14DE
:100BC000ECEDF0E0A881B9810E949114ACEDB0E0A9
:100BD000ECE5F9E20E941214E881F981ACEDB0E095
:100BE0000E942C120E9491148CE0481A80E0580A4E
:100BF0002296ACEDB0E0BA93AA930E941F01229610
:100C000088E28093E700A7EEB0E0BA93AA930E942F
:100C10006A012296ACEDB0E0E5E9F0E00E943B14F9
:100C20008CE00E940C14ECEDF0E0A881B9810E94E8
:100C30009114ACEDB0E0E6E6F9E20E941214E8810E
:100C4000F981ACEDB0E00E942C120E9491148CE06E
:100C5000481A80E0580A2296ACEDB0E0BA93AA9305
:100C60000E941F01229688E28093E700A7EEB0E081
:100C7000BA93AA930E946A012296ACEDB0E0E7E92C
:100C8000F0E00E943B148CE00E940C14ECEDF0E0CC
:100C9000A881B9810E949114ACEDB0E0EAE6F9E2D6
:100CA0000E941214E881F981ACEDB0E00E942C1290
:100CB0000E9491148CE0481A80E0580A2296ACED0C
:100CC000B0E0BA93AA930E941F01229688E2809313
:100CD000E700A7EEB0E0BA93AA930E946A012296B9
:100CE000ACEDB0E0E9E9F0E00E943B148CE00E943A
:100CF0000C14ECEDF0E0A881B9810E949114ACEDE8
:100D0000B0E0E0E7F9E20E941214E881F981ACED6D
:100D1000B0E00E942C120E9491148CE0481A80E0EE
:100D2000580A2296ACEDB0E0BA93AA930E941F0134
:100D3000229688E28093E700A7EEB0E0BA93AA93E8
:100D40000E946A012296ACEDB0E0EBE9F0E00E946F
:100D50003B148CE00E940C14ECEDF0E0A881B9810A
:100D60000E949114ACEDB0E0E6E7F9E20E941214A3
:100D7000E881F981ACEDB0E00E942C120E94911440
:100D80008CE0481A80E0580A2296ACEDB0E0BA93A5
:100D9000AA930E941F01229688E28093E700A7EEA3
:100DA000B0E0BA93AA930E946A012296ACEDB0E03B
:100DB000EDE9F0E00E943B148CE00E940C14ECED95
:100DC000F0E0A881B9810E949114ACEDB0E0ECE7AD
:100DD000F9E20E941214E881F981ACEDB0E00E94C2
:100DE0002C120E9491148CE0481A80E0580A229636
:100DF000ACEDB0E0BA93AA930E941F01229688E25C
:100E00008093E700A7EEB0E0BA93AA930E946A012C
:100E10002296ACEDB0E0EFE9F0E00E943B148CE0EC
:100E20000E940C14ECEDF0E0A881B9810E949114AD
:100E3000ACEDB0E0E2E8F9E20E941214E881F98139
:100E4000ACEDB0E00E942C120E9491148CE0481A84
:100E500080E0580A2296ACEDB0E0BA93AA930E94C3
:100E60001F01229688E28093E700A7EEB0E0BA93D4
:100E7000AA930E946A012296ACEDB0E0E1EAF0E0AC
:100E80000E943B148CE00E940C14ECEDF0E0A88171
:100E9000B9810E949114ACEDB0E0E8E8F9E20E945B
:100EA0001214E881F981ACEDB0E00E942C120E948E
:100EB00091148CE0481A80E0580A2296ACEDB0E01C
:100EC000BA93AA930E941F01229688E28093E700BA
:100ED000A7EEB0E0BA93AA930E946A012296ACED05
:100EE000B0E0E3EAF0E00E943B148CE00E940C14B6
:100EF000ECEDF0E0A881B9810E949114ACEDB0E076
:100F0000EEE8F9E20E941214E881F981ACEDB0E05C
:100F10000E942C120E9491148CE0481A80E0580A1A
:100F20002296ACEDB0E0BA93AA930E941F012296DC
:100F300088E28093E700A7EEB0E0BA93AA930E94FC
:100F40006A012296ACEDB0E0E5EAF0E00E943B14C5
:100F50008CE00E940C14ECEDF0E0A881B9810E94B5
:100F60009114ACEDB0E0E4E9F9E20E941214E881DA
:100F7000F981ACEDB0E00E942C120E9491148CE03B
:100F8000481A80E0580A2296ACEDB0E0BA93AA93D2
:100F90000E941F01229688E28093E700A7EEB0E04E
:100FA000BA93AA930E946A012296ACEDB0E0E7EAF8
:100FB000F0E00E943B148CE00E940C14ECEDF0E099
:100FC000A881B9810E949114ACEDB0E0EAE9F9E2A0
:100FD0000E941214E881F981ACEDB0E00E942C125D
:100FE0000E9491148CE0481A80E0580A2296ACEDD9
:100FF000B0E0BA93AA930E941F01229688E28093E0
:10100000E700A7EEB0E0BA93AA930E946A01229685
:10101000ACEDB0E0E9EAF0E00E943B148CE00E9405
:101020000C14ECEDF0E0A881B9810E949114ACEDB4
:10103000B0E0E0EAF9E20E941214E881F981ACED37
:10104000B0E00E942C120E9491148CE0481A80E0BB
:10105000580A2296ACEDB0E0BA93AA930E941F0101
:10106000229688E28093E700A7EEB0E0BA93AA93B5
:101070000E946A01229688E28093E700A7EEB0E022
:10108000BA93AA930E946A0122960895ABEAB0E04F
:101090000D911C91A5E9B0E04D915C91041B150BDD
:1010A000ACEEB0E00D931C93AAEEB0E04D915C91D4
:1010B000ACEEB0E00D911C91041715071CF011F077
:1010C0000C9464080C94690881E08093CD000C9422
:1010D0006C0880E08093CD00ADEAB0E00D911C91EA
:1010E000A7E9B0E04D915C91041B150BACEEB0E0AC
:1010F0000D931C93AAEEB0E04D915C91ACEEB0E084
:101100000D911C91041715071CF011F00C948A081E
:101110000C948F0881E08093CE000C94920880E0BC
:101120008093CE00AFEAB0E00D911C91A9E9B0E048
:101130004D915C91041B150BACEEB0E00D931C932C
:10114000AAEEB0E04D915C91ACEEB0E00D911C9137
:10115000041715071CF011F00C94B0080C94B50896
:1011600081E08093CF000C94B80880E08093CF009A
:10117000A1EBB0E00D911C91ABE9B0E04D915C9119
:10118000041B150BACEEB0E00D931C93AAEEB0E07F
:101190004D915C91ACEEB0E00D911C9104171507D8
:1011A0001CF011F00C94D6080C94DB0881E08093BD
:1011B000D0000C94DE0880E08093D000A3EBB0E078
:1011C0000D911C91ADE9B0E04D915C91041B150BA4
:1011D000ACEEB0E00D931C93AAEEB0E04D915C91A3
:1011E000ACEEB0E00D911C91041715071CF011F046
:1011F0000C94FC080C94010981E08093D1000C94BC
:10120000040980E08093D100A5EBB0E00D911C9122
:10121000AFE9B0E04D915C91041B150BACEEB0E072
:101220000D931C93AAEEB0E04D915C91ACEEB0E052
:101230000D911C91041715071CF011F00C94220954
:101240000C94270981E08093D2000C942A0980E055
:101250008093D200A7EBB0E00D911C91A1EAB0E021
:101260004D915C91041B150BACEEB0E00D931C93FB
:10127000AAEEB0E04D915C91ACEEB0E00D911C9106
:10128000041715071CF011F00C9448090C944D0933
:1012900081E08093D3000C94500980E08093D300C8
:1012A000A9EBB0E00D911C91A3EAB0E04D915C91E7
:1012B000041B150BACEEB0E00D931C93AAEEB0E04E
:1012C0004D915C91ACEEB0E00D911C9104171507A7
:1012D0001CF011F00C946E090C94730981E080935A
:1012E000D4000C94760980E08093D400ABEBB0E09E
:1012F0000D911C91A5EAB0E04D915C91041B150B7A
:10130000ACEEB0E00D931C93AAEEB0E04D915C9171
:10131000ACEEB0E00D911C91041715071CF011F014
:101320000C9494090C94990981E08093D5000C9455
:101330009C0980E08093D500ADEBB0E00D911C914D
:10134000A7EAB0E04D915C91041B150BACEEB0E048
:101350000D931C93AAEEB0E04D915C91ACEEB0E021
:101360000D911C91041715071CF011F00C94BA098B
:101370000C94BF0981E08093D6000C94C20980E0F0
:101380008093D600AFEBB0E00D911C91A9EAB0E0DC
:101390004D915C91041B150BACEEB0E00D931C93CA
:1013A000AAEEB0E04D915C91ACEEB0E00D911C91D5
:1013B000041715071CF011F00C94E0090C94E509D2
:1013C00081E08093D7000C94E80980E08093D700F7
:1013D00081E08093EE000091EE00063018F011F0ED
:1013E0000C94060AAEEEB0E0AD90BB24AFEBB0E0DB
:1013F000AA0CBB1CAA0DBB1D0E942514AEEEB0E0CA
:101400008C918F5F8C9310F40C94EB0981E08093A6
:10141000EE000091CD00013011F00C94280A82E515
:1014200090E0AEEEB0E0AD90BB24AFEBB0E0AA0C24
:10143000BB1CAA0DBB1D8D939C930091EE00063042
:1014400010F00C94280AAEEEB0E08C918F5F8C9374
:101450000091CE00013011F00C94470A81E590E034
:10146000AEEEB0E0AD90BB24AFEBB0E0AA0CBB1C7D
:10147000AA0DBB1D8D939C930091EE00063010F0D9
:101480000C94470AAEEEB0E08C918F5F8C93009184
:10149000CF00013011F00C94660A80E590E0AEEECA
:1014A000B0E0AD90BB24AFEBB0E0AA0CBB1CAA0D22
:1014B000BB1D8D939C930091EE00063010F00C94B0
:1014C000660AAEEEB0E08C918F5F8C930091D000F5
:1014D000013011F00C94850A8FE490E0AEEEB0E09C
:1014E000AD90BB24AFEBB0E0AA0CBB1CAA0DBB1D9A
:1014F0008D939C930091EE00063010F00C94850AB9
:10150000AEEEB0E08C918F5F8C930091D1000130F2
:1015100011F00C94A40A8AE190E0AEEEB0E0AD9038
:10152000BB24AFEBB0E0AA0CBB1CAA0DBB1D8D9376
:101530009C930091EE00063010F00C94A40AAEEEDD
:10154000B0E08C918F5F8C930091D200013011F04C
:101550000C94C30A86E190E0AEEEB0E0AD90BB24FF
:10156000AFEBB0E0AA0CBB1CAA0DBB1D8D939C93E6
:101570000091EE00063010F00C94C30AAEEEB0E01D
:101580008C918F5F8C930091D300013011F00C94FB
:10159000E20A84E090E0AEEEB0E0AD90BB24AFEBA9
:1015A000B0E0AA0CBB1CAA0DBB1D8D939C930091AF
:1015B000EE00063010F00C94E20AAEEEB0E08C9132
:1015C0008F5F8C930091D400013011F00C94010BCB
:1015D00087E090E0AEEEB0E0AD90BB24AFEBB0E0C2
:1015E000AA0CBB1CAA0DBB1D8D939C930091EE0011
:1015F000063010F00C94010BAEEEB0E08C918F5FD2
:101600008C930091D500013011F00C94200B8CE2EA
:1016100090E0AEEEB0E0AD90BB24AFEBB0E0AA0C32
:10162000BB1CAA0DBB1D8D939C930091EE00063050
:1016300010F00C94200BAEEEB0E08C918F5F8C9389
:101640000091D600013011F00C943F0B88E290E03D
:10165000AEEEB0E0AD90BB24AFEBB0E0AA0CBB1C8B
:10166000AA0DBB1D8D939C930091EE00063010F0E7
:101670000C943F0BAEEEB0E08C918F5F8C93009199
:10168000D700013011F00C945E0B80EE90E0AEEECE
:10169000B0E0AD90BB24AFEBB0E0AA0CBB1CAA0D30
:1016A000BB1D8D939C930091EE00063010F00C94BE
:1016B0005E0BAEEEB0E08C918F5F8C93A4E8B0E04F
:1016C0000C9105FB16F00C945E0BA1ECB0E01196AA
:1016D0008C91A6E8B0E08C9380E080938700A1EC29
:1016E000B0E08C91A8E8B0E08C93A3ECB0E08C91D2
:1016F000A9E8B0E08C93A5ECB0E08C91AAE8B0E04A
:101700008C93A7ECB0E08C91ABE8B0E08C93A9ECA3
:10171000B0E08C91ACE8B0E08C93ABECB0E08C9195
:10172000ADE8B0E08C93A4E8B0E0BA93AA9388E067
:10173000D2018C9381E00E940C140E94A80424968C
:1017400081E00E9408140895ABEAB0E00D911C916D
:10175000003050E0150711F40C94DE0B81E090E0AE
:10176000A5E9B0E08D939C93AFEEB0E04D915C9114
:10177000A5E9B0E00D911C910417150718F011F0C0
:101780000C94DA0BBB98BC98C49ABC9ABC98C498C9
:10179000BB9AEF93E4E0EA95F1F7EF91B49B0C94D8
:1017A000D30B0C94DA0BA5E9B0E00E94251210F4DB
:1017B0000C94B40BC398C498BB9ABC9AADEAB0E041
:1017C0000D911C91003050E0150711F40C94180C89
:1017D00081E090E0A7E9B0E08D939C93AFEEB0E09C
:1017E0004D915C91A7E9B0E00D911C91041715078C
:1017F00018F011F00C94140CB998BA98C29ABA9ACD
:10180000BA98C298B99AEF93E4E0EA95F1F7EF91AC
:10181000B29B0C940D0C0C94140CA7E9B0E00E9440
:10182000251210F40C94EE0BC198C298B99ABA9A8A
:10183000AFEAB0E00D911C91003050E0150711F4B3
:101840000C94520C81E090E0A9E9B0E08D939C9358
:10185000AFEEB0E04D915C91A9E9B0E00D911C9123
:101860000417150718F011F00C944E0CD098B89886
:10187000C09AB89AB898C098D09AEF93E4E0EA95E5
:10188000F1F7EF91B09B0C94470C0C944E0CA9E926
:10189000B0E00E94251210F40C94280CD898C0983F
:1018A000D09AB89AA1EBB0E00D911C91003050E0B5
:1018B000150711F40C948C0C81E090E0ABE9B0E0DA
:1018C0008D939C93AFEEB0E04D915C91ABE9B0E0AD
:1018D0000D911C910417150718F011F00C94880C49
:1018E000D398D298DA9AD29AD298DA98D39AEF9378
:1018F000E4E0EA95F1F7EF91CA9B0C94810C0C940B
:10190000880CABE9B0E00E94251210F40C94620C34
:10191000DB98DA98D39AD29AA3EBB0E00D911C91A0
:10192000003050E0150711F40C94C60C81E090E0F3
:10193000ADE9B0E08D939C93AFEEB0E04D915C913A
:10194000ADE9B0E00D911C910417150718F011F0E6
:101950000C94C20CD598D498DC9AD49AD498DC987C
:10196000D59AEF93E4E0EA95F1F7EF91CC9B0C94D4
:10197000BB0C0C94C20CADE9B0E00E94251210F42F
:101980000C949C0CDD98DC98D59AD49AA5EBB0E029
:101990000D911C91003050E0150711F40C94000DCE
:1019A00081E090E0AFE9B0E08D939C93AFEEB0E0C2
:1019B0004D915C91AFE9B0E00D911C9104171507B2
:1019C00018F011F00C94FC0CD798D698DE9AD69AA1
:1019D000D698DE98D79AEF93E4E0EA95F1F7EF9185
:1019E000CE9B0C94F50C0C94FC0CAFE9B0E00E947B
:1019F000251210F40C94D60CDF98DE98D79AD69A5C
:101A0000A7EBB0E00D911C91003050E0150711F4E8
:101A10000C943A0D81E090E0A1EAB0E08D939C93A4
:101A2000AFEEB0E04D915C91A1EAB0E00D911C9158
:101A30000417150718F011F00C94360DA698A79806
:101A4000AF9AA79AA798AF98A69AEF93E4E0EA9581
:101A5000F1F7EF919F9B0C942F0D0C94360DA1EA9A
:101A6000B0E00E94251210F40C94100DAE98AF98BF
:101A7000A69AA79AA9EBB0E00D911C91003050E016
:101A8000150711F40C94740D81E090E0A3EAB0E026
:101A90008D939C93AFEEB0E04D915C91A3EAB0E0E2
:101AA0000D911C910417150718F011F00C94700D8E
:101AB000A498A598AD9AA59AA598AD98A49AEF93E5
:101AC000E4E0EA95F1F7EF919D9B0C94690D0C947D
:101AD000700DA3EAB0E00E94251210F40C944A0D98
:101AE000AC98AD98A49AA59AABEBB0E00D911C917F
:101AF000003050E0150711F40C94AE0D81E090E039
:101B0000A5EAB0E08D939C93AFEEB0E04D915C916F
:101B1000A5EAB0E00D911C910417150718F011F01B
:101B20000C94AA0DA298A398AB9AA39AA398AB98E9
:101B3000A29AEF93E4E0EA95F1F7EF919B9B0C9466
:101B4000A30D0C94AA0DA5EAB0E00E94251210F492
:101B50000C94840DAA98AB98A29AA39AADEBB0E02E
:101B60000D911C91003050E0150711F40C94E80D14
:101B700081E090E0A7EAB0E08D939C93AFEEB0E0F7
:101B80004D915C91A7EAB0E00D911C9104171507E7
:101B900018F011F00C94E40DA098A198A99AA19ABC
:101BA000A198A998A09AEF93E4E0EA95F1F7EF9154
:101BB000999B0C94DD0D0C94E40DA7EAB0E00E9413
:101BC000251210F40C94BE0DA898A998A09AA19A79
:101BD000AFEBB0E00D911C91003050E0150711F40F
:101BE0000C94220E81E090E0A9EAB0E08D939C93E2
:101BF000AFEEB0E04D915C91A9EAB0E00D911C917F
:101C00000417150718F011F00C941E0E8E988F987B
:101C1000979A8F9A8F9897988E9AEF93E4E0EA9527
:101C2000F1F7EF91879B0C94170E0C941E0EA9EA06
:101C3000B0E00E94251210F40C94F80D9698979835
:101C40008E9A8F9A089581E090E0A5E9B0E08D9397
:101C50009C93AFEEB0E04D915C91A5E9B0E00D91A1
:101C60001C910417150718F011F00C944F0EBB9837
:101C7000BC98C49ABC9ABC98C498BB9AEF93E4E011
:101C8000EA95F1F7EF91B49B0C94480E0C944F0E2B
:101C9000A5E9B0E00E94251210F40C94290EC39817
:101CA000C498BB9ABC9A81E090E0A7E9B0E08D931C
:101CB0009C93AFEEB0E04D915C91A7E9B0E00D913F
:101CC0001C910417150718F011F00C947F0EB998A9
:101CD000BA98C29ABA9ABA98C298B99AEF93E4E0BD
:101CE000EA95F1F7EF91B29B0C94780E0C947F0E6D
:101CF000A7E9B0E00E94251210F40C94590EC19887
:101D0000C298B99ABA9A81E090E0A9E9B0E08D93BF
:101D10009C93AFEEB0E04D915C91A9E9B0E00D91DC
:101D20001C910417150718F011F00C94AF0ED09801
:101D3000B898C09AB89AB898C098D09AEF93E4E04F
:101D4000EA95F1F7EF91B09B0C94A80E0C94AF0EAE
:101D5000A9E9B0E00E94251210F40C94890ED898DD
:101D6000C098D09AB89A81E090E0ABE9B0E08D934A
:101D70009C93AFEEB0E04D915C91ABE9B0E00D917A
:101D80001C910417150718F011F00C94DF0ED3986E
:101D9000D298DA9AD29AD298DA98D39AEF93E4E06A
:101DA000EA95F1F7EF91CA9B0C94D80E0C94DF0ED4
:101DB000ABE9B0E00E94251210F40C94B90EDB9848
:101DC000DA98D39AD29A81E090E0ADE9B0E08D93B1
:101DD0009C93AFEEB0E04D915C91ADE9B0E00D9118
:101DE0001C910417150718F011F00C940F0FD598DB
:101DF000D498DC9AD49AD498DC98D59AEF93E4E0FE
:101E0000EA95F1F7EF91CC9B0C94080F0C940F0F0F
:101E1000ADE9B0E00E94251210F40C94E90EDD98B3
:101E2000DC98D59AD49A81E090E0AFE9B0E08D9348
:101E30009C93AFEEB0E04D915C91AFE9B0E00D91B5
:101E40001C910417150718F011F00C943F0FD79848
:101E5000D698DE9AD69AD698DE98D79AEF93E4E091
:101E6000EA95F1F7EF91CE9B0C94380F0C943F0F4D
:101E7000AFE9B0E00E94251210F40C94190FDF981E
:101E8000DE98D79AD69A81E090E0A1EAB0E08D93EF
:101E90009C93AFEEB0E04D915C91A1EAB0E00D9162
:101EA0001C910417150718F011F00C946F0FA698E9
:101EB000A798AF9AA79AA798AF98A69AEF93E4E04D
:101EC000EA95F1F7EF919F9B0C94680F0C946F0FBC
:101ED000A1EAB0E00E94251210F40C94490FAE98CC
:101EE000AF98A69AA79A81E090E0A3EAB0E08D931C
:101EF0009C93AFEEB0E04D915C91A3EAB0E00D9100
:101F00001C910417150718F011F00C949F0FA4985A
:101F1000A598AD9AA59AA598AD98A49AEF93E4E0F8
:101F2000EA95F1F7EF919D9B0C94980F0C949F0FFD
:101F3000A3EAB0E00E94251210F40C94790FAC983B
:101F4000AD98A49AA59A81E090E0A5EAB0E08D93BF
:101F50009C93AFEEB0E04D915C91A5EAB0E00D919D
:101F60001C910417150718F011F00C94CF0FA298CC
:101F7000A398AB9AA39AA398AB98A29AEF93E4E0A4
:101F8000EA95F1F7EF919B9B0C94C80F0C94CF0F3F
:101F9000A5EAB0E00E94251210F40C94A90FAA98AB
:101FA000AB98A29AA39A81E090E0A7EAB0E08D9363
:101FB0009C93AFEEB0E04D915C91A7EAB0E00D913B
:101FC0001C910417150718F011F00C94FF0FA0983E
:101FD000A198A99AA19AA198A998A09AEF93E4E050
:101FE000EA95F1F7EF91999B0C94F80F0C94FF0F81
:101FF000A7EAB0E00E94251210F40C94D90FA8981B
:10200000A998A09AA19A81E090E0A9EAB0E08D9306
:102010009C93AFEEB0E04D915C91A9EAB0E00D91D8
:102020001C910417150718F011F00C942F108E98BE
:102030008F98979A8F9A8F9897988E9AEF93E4E05B
:10204000EA95F1F7EF91879B0C9428100C942F10D0
:10205000A9EAB0E00E94251210F40C940910969899
:1020600097988E9A8F9A0895A5E9B0E00D911C91EA
:1020700001325AE0150710F00C944810A5E9B0E0C1
:102080008D919C91ABEAB0E08D939C930C944C1095
:10209000ABEAB0E00E942514A7E9B0E00D911C91D5
:1020A0000F3B59E0150710F00C946010A7E9B0E061
:1020B0008D919C91ADEAB0E08D939C930C9464104B
:1020C000ADEAB0E00E942514A9E9B0E00D911C91A1
:1020D00004315AE0150710F00C947810A9E9B0E02B
:1020E0008D919C91AFEAB0E08D939C930C947C1001
:1020F000AFEAB0E00E942514ABE9B0E00D911C916D
:102100000F365BE0150710F00C949010ABE9B0E0CF
:102110008D919C91A1EBB0E08D939C930C949410C5
:10212000A1EBB0E00E942514ADE9B0E00D911C9147
:102130000E3B5BE0150710F00C94A810ADE9B0E081
:102140008D919C91A3EBB0E08D939C930C94AC107B
:10215000A3EBB0E00E942514AFE9B0E00D911C9113
:10216000063E5BE0150710F00C94C010AFE9B0E03C
:102170008D919C91A5EBB0E08D939C930C94C41031
:10218000A5EBB0E00E942514A1EAB0E00D911C91EE
:102190000D3C5AE0150710F00C94D810A1EAB0E0FD
:1021A0008D919C91A7EBB0E08D939C930C94DC10E7
:1021B000A7EBB0E00E942514A3EAB0E00D911C91BA
:1021C00002345BE0150710F00C94F010A3EAB0E0C5
:1021D0008D919C91A9EBB0E08D939C930C94F4109D
:1021E000A9EBB0E00E942514A5EAB0E00D911C9186
:1021F000093B5AE0150710F00C940811A5EAB0E06D
:102200008D919C91ABEBB0E08D939C930C940C1151
:10221000ABEBB0E00E942514A7EAB0E00D911C9151
:102220000B3D58E0150710F00C942011A7EAB0E020
:102230008D919C91ADEBB0E08D939C930C94241107
:10224000ADEBB0E00E942514A9EAB0E00D911C911D
:102250000A3F5AE0150710F00C943811A9EAB0E0D3
:102260008D919C91AFEBB0E08D939C930C943C11BD
:10227000AFEBB0E00E94251483E090E0A1EFB0E066
:102280008D939C93ABEAB0E00D911C91003050E02F
:10229000150711F00C945611A1EFB0E00D911C91AF
:1022A0000D5F1F4FA1EFB0E00D931C93ADEAB0E0BE
:1022B0000D911C91003050E0150711F00C946A113B
:1022C000A1EFB0E00D911C910D5F1F4FA1EFB0E0A9
:1022D0000D931C93AFEAB0E00D911C91003050E0DB
:1022E000150711F00C947E11A1EFB0E00D911C9137
:1022F0000D5F1F4FA1EFB0E00D931C93A1EBB0E079
:102300000D911C91003050E0150711F00C949211C2
:10231000A1EFB0E00D911C910D5F1F4FA1EFB0E058
:102320000D931C93A3EBB0E00D911C91003050E095
:10233000150711F00C94A611A1EFB0E00D911C91BE
:102340000D5F1F4FA1EFB0E00D931C93A5EBB0E024
:102350000D911C91003050E0150711F00C94BA114A
:10236000A1EFB0E00D911C910D5F1F4FA1EFB0E008
:102370000D931C93A7EBB0E00D911C91003050E041
:10238000150711F00C94CE11A1EFB0E00D911C9146
:102390000D5F1F4FA1EFB0E00D931C93A9EBB0E0D0
:1023A0000D911C91003050E0150711F00C94E211D2
:1023B000A1EFB0E00D911C910D5F1F4FA1EFB0E0B8
:1023C0000D931C93ABEBB0E00D911C91003050E0ED
:1023D000150711F00C94F611A1EFB0E00D911C91CE
:1023E0000D5F1F4FA1EFB0E00D931C93ADEBB0E07C
:1023F0000D911C91003050E0150711F00C940A1259
:10240000A1EFB0E00D911C910D5F1F4FA1EFB0E067
:102410000D931C93AFEBB0E00D911C91003050E098
:10242000150711F00C941E12A1EFB0E00D911C9154
:102430000D5F1F4FA1EFB0E00D931C9308958E2EFA
:102440009F2E0895E82DF92D0895ED91FC91EF5FF1
:10245000FF4FFC93EE9308958F938D918823E9F7B6
:1024600011978F9108953197F1F70895689462F864
:102470000895E89462F80895EF93FF93EE27E82B10
:10248000E92B31F0E8EBFBE03197F1F70197D1F759
:10249000FF91EF910895AF93BF934F933F933FB751
:1024A0003F933395849BE9F7829909C0849B07C0C9
:1024B000829905C0849B03C0829901C08DC0A1E6AA
:1024C000B0E030919200442736FF4BE08499ECCF86
:1024D0002F931F93A40F40E010B3B41F36FFA40F37
:1024E00040E0B41F0F9300B32FE73FEF14FB20F938
:1024F000102712FB21F910B3000013C010B33227CC
:102500003D933FEF012702FB20F900B3047199F1DD
:10251000297F91F1102712FB21F910B30000237FCE
:1025200089F10000012702FB22F900B3277E81F127
:10253000102712FB23F92F7C89F110B3012702FB2E
:1025400024F900C02F7979F100B32F774395102734
:1025500012FB25F92F7361F110B3012702FB26F955
:10256000223058F14C30A8F500B3102712FB27F9A0
:10257000243048F1C3CF3AC00000216000B33E7F51
:102580001095C8CF22603D7F009510B30000C9CFE1
:1025900024603B7F1095000000B3CACF2860377FCE
:1025A000009500C0CACF20613F7E109500C0CCCFFF
:1025B00020623F7D009500C0CFCF00C020643F7BEC
:1025C000109500C0D1CF20683F77009500C000C0B3
:1025D00095CF0F911F912F913AB736FD62CF3F9162
:1025E0003FBF3F914F91BF91AF91189530E43ABFF3
:1025F000A41BB0400D91102F13731132C1F41D9123
:102600002D9140916000110F221F16952F70141705
:1026100051F5093649F0013E41F13091920036FF03
:1026200022C00D3209F11FC02093930049F0209180
:10263000930025FDCECF30919200307C322B2F704D
:10264000A8E7B0E0203029F0A4E8B0E0213009F09C
:102650000AC01D91093691F0033CA9F00B3499F0A2
:10266000023D31F0B6CF2062206120939300B1CFBC
:102670001F7E106230E413271E93ABCF14FF05C0FA
:10268000412F4F7024C036FD02C01AE50BC0433005
:1026900041F036FFFACF30683F7B30939200409391
:1026A000770012EDBB27A1E141E011C052BB279595
:1026B00020F43A9521F4220FF9CF502736E000C0DC
:1026C00052BB2795B8F43A95B9F4220FF9CF5F932E
:1026D0004F9304E1949A21B3246121BB52B320E4C7
:1026E000502736E0000052BB279578F43A9579F4EC
:1026F000220FF9CF502736E02D9152BB27958EF14E
:1027000078F73A9579F7220FF9CF502736E000C0D5
:1027100052BB279520F43A9521F4220FF9CF502788
:1027200036E000C052BB279520F43A9521F4220FE1
:10273000F9CF502736E000C052BB279520F43A95D8
:1027400021F4220FF9CF502736E04A9547FB52BBC0
:10275000279520F43A9521F4220FF9CF502736E03F
:10276000A5CF00C022B32B7E22BB4F91A41BB0404B
:10277000422F206131B33B7E00E40ABF5F910E918E
:10278000037422BB31BB42BB24CFAF93BF930F93E3
:102790001F932F933F934F938F93A881B9814C91AF
:1027A000AA81BB810FEF1FEF4A95DAF02D91202708
:1027B000822F012F33278894279582273795282F3A
:1027C0002795122F3795881F8227282F2295822739
:1027D000232F31E081FD2327022720EC81FD1227E2
:1027E000E3CF10950095AC81BD810D931C938F9123
:1027F0004F913F912F911F910F91BF91AF910895EC
:1028000001911191219130810895481A590A089532
:10281000481A8827580A089599275A924A92480ECA
:10282000591E08950E9421140D920020D9F7089591
:10283000369A3699FECF369A3699FECF84B195B145
:102840000895C89531960020089582E001C084E083
:1028500099279D938A95E9F70895000F111F221F6C
:10286000331F089500951095209530950F5F1F4FE9
:102870002F4F3F4F0895019110810CC00E9400140A
:102880000BC00191108117FF05C03FEF2FEF04C06F
:10289000008111272227332737FF03C0E3DF8DE2B2
:1028A0008D93CF92DF92EF92AA24BB24CC24DD2417
:1028B000EE2440E2EAE0FF2755E093E38081890FB0
:1028C00087FD9F7083FD907F891B81935A95A9F79F
:1028D000C4DFAA1CBB1CCC1CDD1CEE1C4A9551F7A6
:1028E000E894EFE0FF2782910CD0EB30E0F71EF088
:1028F00068948A2D0AD088278D93EF90DF90CF902F
:102900000895982F829501D0892F8F70805D26F0D1
:10291000803309F4089568948D93089588278D93E2
:10292000089581918D938823E1F7089509919191FC
:10293000992351F08A95D9F73197002329F0819195
:102940008D930A958823C9F7E9CF8FEF83959D91E1
:102950009923E1F7089548656C6C6F00736368779D
:10296000656C6C652000643020006431202000001C
:1029700064322020000064332020000064342020D2
:1029800000006435202000006436202000006437F9
:10299000202000006438202000006439202000003E
:0629A0006431302000004C
:00000001FF
